{
  "contractName": "Poc",
  "address": "0xd93b93f69Fb801f87fA164a132833e97d86332A1",
  "abi": [
    {
      "constant": true,
      "inputs": [
        {
          "name": "",
          "type": "uint256"
        }
      ],
      "name": "signProgress",
      "outputs": [
        {
          "name": "",
          "type": "uint256"
        }
      ],
      "payable": false,
      "stateMutability": "view",
      "type": "function"
    },
    {
      "constant": true,
      "inputs": [
        {
          "name": "",
          "type": "uint256"
        },
        {
          "name": "",
          "type": "uint256"
        }
      ],
      "name": "parties",
      "outputs": [
        {
          "name": "",
          "type": "address"
        }
      ],
      "payable": false,
      "stateMutability": "view",
      "type": "function"
    },
    {
      "constant": true,
      "inputs": [
        {
          "name": "",
          "type": "uint256"
        }
      ],
      "name": "approvals",
      "outputs": [
        {
          "name": "",
          "type": "bool"
        }
      ],
      "payable": false,
      "stateMutability": "view",
      "type": "function"
    },
    {
      "constant": true,
      "inputs": [
        {
          "name": "",
          "type": "uint256"
        }
      ],
      "name": "expireBlockNumbers",
      "outputs": [
        {
          "name": "",
          "type": "uint256"
        }
      ],
      "payable": false,
      "stateMutability": "view",
      "type": "function"
    },
    {
      "constant": true,
      "inputs": [
        {
          "name": "",
          "type": "uint256"
        },
        {
          "name": "",
          "type": "uint256"
        }
      ],
      "name": "extraData",
      "outputs": [
        {
          "name": "",
          "type": "string"
        }
      ],
      "payable": false,
      "stateMutability": "view",
      "type": "function"
    },
    {
      "constant": true,
      "inputs": [
        {
          "name": "",
          "type": "uint256"
        },
        {
          "name": "",
          "type": "uint256"
        }
      ],
      "name": "hashes",
      "outputs": [
        {
          "name": "",
          "type": "uint256"
        }
      ],
      "payable": false,
      "stateMutability": "view",
      "type": "function"
    },
    {
      "inputs": [],
      "payable": false,
      "stateMutability": "nonpayable",
      "type": "constructor"
    },
    {
      "anonymous": false,
      "inputs": [
        {
          "indexed": true,
          "name": "_contractId",
          "type": "uint256"
        },
        {
          "indexed": true,
          "name": "_creator",
          "type": "address"
        },
        {
          "indexed": false,
          "name": "_parties",
          "type": "address[]"
        },
        {
          "indexed": false,
          "name": "_lifetime",
          "type": "uint256"
        },
        {
          "indexed": false,
          "name": "_overwrite",
          "type": "bool"
        }
      ],
      "name": "NewContract",
      "type": "event"
    },
    {
      "anonymous": false,
      "inputs": [
        {
          "indexed": true,
          "name": "_contractId",
          "type": "uint256"
        },
        {
          "indexed": true,
          "name": "_signer",
          "type": "address"
        },
        {
          "indexed": false,
          "name": "_signedHash",
          "type": "uint256"
        }
      ],
      "name": "SignContract",
      "type": "event"
    },
    {
      "anonymous": false,
      "inputs": [
        {
          "indexed": true,
          "name": "_contractId",
          "type": "uint256"
        },
        {
          "indexed": false,
          "name": "_defector",
          "type": "address"
        }
      ],
      "name": "NullifyContract",
      "type": "event"
    },
    {
      "anonymous": false,
      "inputs": [
        {
          "indexed": true,
          "name": "_contractId",
          "type": "uint256"
        }
      ],
      "name": "ApproveContract",
      "type": "event"
    },
    {
      "constant": true,
      "inputs": [
        {
          "name": "_contractId",
          "type": "uint256"
        }
      ],
      "name": "isExpiredContract",
      "outputs": [
        {
          "name": "",
          "type": "bool"
        }
      ],
      "payable": false,
      "stateMutability": "view",
      "type": "function"
    },
    {
      "constant": true,
      "inputs": [
        {
          "name": "_contractId",
          "type": "uint256"
        }
      ],
      "name": "getParties",
      "outputs": [
        {
          "name": "",
          "type": "address[]"
        }
      ],
      "payable": false,
      "stateMutability": "view",
      "type": "function"
    },
    {
      "constant": true,
      "inputs": [
        {
          "name": "_contractId",
          "type": "uint256"
        }
      ],
      "name": "getHashes",
      "outputs": [
        {
          "name": "",
          "type": "uint256[]"
        }
      ],
      "payable": false,
      "stateMutability": "view",
      "type": "function"
    },
    {
      "constant": true,
      "inputs": [
        {
          "name": "_contractId",
          "type": "uint256"
        }
      ],
      "name": "getStatus",
      "outputs": [
        {
          "name": "",
          "type": "int256"
        }
      ],
      "payable": false,
      "stateMutability": "view",
      "type": "function"
    },
    {
      "constant": false,
      "inputs": [
        {
          "name": "_contractId",
          "type": "uint256"
        },
        {
          "name": "_parties",
          "type": "address[]"
        },
        {
          "name": "_lifetime",
          "type": "uint256"
        }
      ],
      "name": "newContract",
      "outputs": [],
      "payable": false,
      "stateMutability": "nonpayable",
      "type": "function"
    },
    {
      "constant": false,
      "inputs": [
        {
          "name": "_contractId",
          "type": "uint256"
        },
        {
          "name": "_signedHash",
          "type": "uint256"
        },
        {
          "name": "_extraData",
          "type": "string"
        }
      ],
      "name": "signContract",
      "outputs": [],
      "payable": false,
      "stateMutability": "nonpayable",
      "type": "function"
    }
  ],
  "bytecode": "0x608060405234801561001057600080fd5b50610e20806100206000396000f3006080604052600436106100b95763ffffffff7c010000000000000000000000000000000000000000000000000000000060003504166302a8ca1081146100be5780630305dd591461012657806306b78c041461018857806306ffc546146101b45780631f35abd714610210578063447fe2891461023a57806352554a78146102525780635c622a0e1461028957806363035f66146102a157806388863aa2146102b95780639d2af90e146102d1578063d13372ca14610361575b600080fd5b3480156100ca57600080fd5b506100d660043561037c565b60408051602080825283518183015283519192839290830191858101910280838360005b838110156101125781810151838201526020016100fa565b505050509050019250505060405180910390f35b34801561013257600080fd5b50604080516020600460443581810135601f81018490048402850184019095528484526101869482359460248035953695946064949201919081908401838280828437509497506103df9650505050505050565b005b34801561019457600080fd5b506101a06004356106ae565b604080519115158252519081900360200190f35b3480156101c057600080fd5b506040805160206004602480358281013584810280870186019097528086526101869684359636966044959194909101929182918501908490808284375094975050933594506106c29350505050565b34801561021c57600080fd5b506102286004356108a0565b60408051918252519081900360200190f35b34801561024657600080fd5b506100d66004356108b2565b34801561025e57600080fd5b5061026d60043560243561091b565b60408051600160a060020a039092168252519081900360200190f35b34801561029557600080fd5b50610228600435610952565b3480156102ad57600080fd5b506101a0600435610990565b3480156102c557600080fd5b506102286004356109a5565b3480156102dd57600080fd5b506102ec6004356024356109b7565b6040805160208082528351818301528351919283929083019185019080838360005b8381101561032657818101518382015260200161030e565b50505050905090810190601f1680156103535780820380516001836020036101000a031916815260200191505b509250505060405180910390f35b34801561036d57600080fd5b50610228600435602435610a6d565b6000818152600160209081526040918290208054835181840281018401909452808452606093928301828280156103d257602002820191906000526020600020905b8154815260200190600101908083116103be575b505050505090505b919050565b60008060008060006103f088610952565b156103fa57600080fd5b600088815260208181526040808320546003909252909120541061041d57600080fd5b6104278833610a9d565b909550935084151561043857600080fd5b600088815260016020526040902080548590811061045257fe5b6000918252602090912001541561046857600080fd5b600088815260016020526040902080548891908690811061048557fe5b906000526020600020018190555085600260008a8152602001908152602001600020858154811015156104b457fe5b9060005260206000200190805190602001906104d1929190610bbd565b506000888152600360205260409020546104f290600163ffffffff610b1d16565b600089815260036020908152604091829020929092558051898152905133928b927f50a3310bf5a3b41a0897ed6a820037c427d5bd8b27d084a48de32bdb296a707b929081900390910190a36000888152602081815260408083205460039092529091205414156106a45760008881526001602052604081208054909190811061057857fe5b9060005260206000200154925060019150600190505b6000888152600160205260409020548110156106555760008881526001602052604090208054829081106105be57fe5b90600052602060002001548314151561064d57600088815260046020908152604080832060019055908290528120805491935089917f55c97a1c48fbd49aa1102cf1a0bcae0684376e8d106a5f0de77c5d66bc62605791908490811061062057fe5b6000918252602091829020015460408051600160a060020a039092168252519081900390910190a2610655565b60010161058e565b6000888152600560205260409020805460ff191683158015919091179091556106a45760405188907f1afc78ecd28dba8c4f49ab3982ba006ffc649deadaf4810183e9c4318c92e4b890600090a25b5050505050505050565b600090815260046020526040902054431190565b600081116106cf57600080fd5b600182511180156106e257506103e88251105b15156106ed57600080fd5b6106f682610b30565b151561070157600080fd5b61070a83610952565b60001914156100b957600083815260208181526040909120835161073092850190610c3b565b50815160405190808252806020026020018201604052801561075c578160200160208202803883390190505b50600084815260016020908152604090912082516107809391929190910190610ca9565b5081516040519080825280602002602001820160405280156107b657816020015b60608152602001906001900390816107a15790505b50600084815260026020908152604090912082516107da9391929190910190610ce3565b506000838152600360205260408120556107fa438263ffffffff610b1d16565b6000848152600460209081526040808320849055805180830186905293151590840181905260608085528651908501528551339488947fc92c498d852ee47b7902bc060a312a3f0d62b33edb2310883191e23644747a16948994899490939283926080840192888201929102908190849084905b8381101561088657818101518382015260200161086e565b5050505090500194505050505060405180910390a3505050565b60036020526000908152604090205481565b600081815260208181526040918290208054835181840281018401909452808452606093928301828280156103d257602002820191906000526020600020905b8154600160a060020a031681526001909101906020018083116108f25750505050509050919050565b60006020528160005260406000208181548110151561093657fe5b600091825260209091200154600160a060020a03169150829050565b60008181526005602052604081205460ff1615610971575060016103da565b61097a826106ae565b1561098857506000196103da565b5060006103da565b60056020526000908152604090205460ff1681565b60046020526000908152604090205481565b6002602052816000526040600020818154811015156109d257fe5b600091825260209182902001805460408051601f60026000196101006001871615020190941693909304928301859004850281018501909152818152945090925090830182828015610a655780601f10610a3a57610100808354040283529160200191610a65565b820191906000526020600020905b815481529060010190602001808311610a4857829003601f168201915b505050505081565b600160205281600052604060002081815481101515610a8857fe5b90600052602060002001600091509150505481565b600080805b600085815260208190526040902054811015610b0d5760008581526020819052604090208054600160a060020a038616919083908110610ade57fe5b600091825260209091200154600160a060020a03161415610b055760018192509250610b15565b600101610aa2565b600092508291505b509250929050565b81810182811015610b2a57fe5b92915050565b600080805b8351821015610bb15750600181015b8351811015610ba6578381815181101515610b5b57fe5b90602001906020020151600160a060020a03168483815181101515610b7c57fe5b90602001906020020151600160a060020a03161415610b9e5760009250610bb6565b600101610b44565b600190910190610b35565b600192505b5050919050565b828054600181600116156101000203166002900490600052602060002090601f016020900481019282601f10610bfe57805160ff1916838001178555610c2b565b82800160010185558215610c2b579182015b82811115610c2b578251825591602001919060010190610c10565b50610c37929150610d3c565b5090565b828054828255906000526020600020908101928215610c9d579160200282015b82811115610c9d578251825473ffffffffffffffffffffffffffffffffffffffff1916600160a060020a03909116178255602090920191600190910190610c5b565b50610c37929150610d59565b828054828255906000526020600020908101928215610c2b5791602002820182811115610c2b578251825591602001919060010190610c10565b828054828255906000526020600020908101928215610d30579160200282015b82811115610d305782518051610d20918491602090910190610bbd565b5091602001919060010190610d03565b50610c37929150610d8a565b610d5691905b80821115610c375760008155600101610d42565b90565b610d5691905b80821115610c3757805473ffffffffffffffffffffffffffffffffffffffff19168155600101610d5f565b610d5691905b80821115610c37576000610da48282610dad565b50600101610d90565b50805460018160011615610100020316600290046000825580601f10610dd35750610df1565b601f016020900490600052602060002090810190610df19190610d3c565b505600a165627a7a72305820a09bbe20d2f6059501dbadc277da97d7da09c1ac47ad54a01ac97bb453b302210029",
  "source": "pragma solidity ^0.4.23;\n\nimport \"zeppelin-solidity/contracts/math/SafeMath.sol\";\n\ncontract Poc {\n\tusing SafeMath for uint256;\n    mapping (uint256 => address[]) public parties;\n    mapping (uint256 => uint256[]) public hashes;\n    mapping (uint256 => string[]) public extraData;\n    mapping (uint256 => uint256) public signProgress;\n    mapping (uint256 => uint256) public expireBlockNumbers;\n    mapping (uint256 => bool) public approvals;\n\n    constructor() public {\n\t}\n\n    function isExpiredContract(uint256 _contractId) public view returns (bool) {\n        return block.number > expireBlockNumbers[_contractId];\n    }\n\n    function getParties(uint256 _contractId) public view returns (address[]) {\n        return parties[_contractId];\n    }\n\n    function getHashes(uint256 _contractId) public view returns (uint256[]) {\n        return hashes[_contractId];\n    }\n\n    // getStatus\n    // 1 : Approved\n    // 0 : Wait to sign\n    // -1 : Expired or nullified\n    function getStatus(uint256 _contractId) public view returns (int) {\n        if (approvals[_contractId]) { // approvals[_contractId]\n            return 1;\n        } else if (isExpiredContract(_contractId)) { // isExpiredContract(_contractId) && !approvals[_contractId]\n            return -1;\n        } else { // !isExpiredContract(_contractId) && !approvals[_contractId]\n            return 0;\n        }\n    }\n\n    function newContract(uint256 _contractId, address[] _parties, uint256 _lifetime) public { \n        require(_lifetime > 0);\n        require(_parties.length > 1 && _parties.length < 1000);\n        require(_checkDistinctParties(_parties));\n        if (getStatus(_contractId) == -1) {\n            parties[_contractId] = _parties;\n            hashes[_contractId] = new uint256[](_parties.length);\n            extraData[_contractId] = new string[](_parties.length);\n            signProgress[_contractId] = 0;\n            expireBlockNumbers[_contractId] = block.number.add(_lifetime);\n            // expireBlockNumbers[_contractId] != 0 means overwrited\n            emit NewContract(_contractId, msg.sender, _parties, _lifetime, expireBlockNumbers[_contractId] != 0);\n        } else {\n            require(false);\n        }\n    }\n    event NewContract(uint256 indexed _contractId, address indexed _creator, address[] _parties, uint256 _lifetime, bool _overwrite);\n\n    function signContract(uint256 _contractId, uint256 _signedHash, string _extraData) public {\n        require(getStatus(_contractId) == 0);\n        require(signProgress[_contractId] < parties[_contractId].length);\n        bool exist;\n        uint256 index;\n        (exist, index) = _getIndexOfParty(_contractId, msg.sender);\n        require(exist);\n        require(hashes[_contractId][index] == 0);\n        hashes[_contractId][index] = _signedHash;\n        extraData[_contractId][index] = _extraData;\n        signProgress[_contractId] = signProgress[_contractId].add(1);\n        emit SignContract(_contractId, msg.sender, _signedHash);\n        if (signProgress[_contractId] == parties[_contractId].length) {\n            uint256 commonHash = hashes[_contractId][0];\n            bool approval = true;\n            for(uint256 i = 1; i < hashes[_contractId].length; i++) {\n                if (commonHash != hashes[_contractId][i]) {\n                    approval = false;\n                    expireBlockNumbers[_contractId] = 1;\n                    emit NullifyContract(_contractId, parties[_contractId][i]);\n                    break;\n                }\n            }\n            approvals[_contractId] = approval;\n            if (approval) {\n                emit ApproveContract(_contractId);\n            }\n        }\n    }\n    event SignContract(uint256 indexed _contractId, address indexed _signer, uint256 _signedHash);\n    event NullifyContract(uint256 indexed _contractId, address _defector);\n    event ApproveContract(uint256 indexed _contractId);\n\n    function _getIndexOfParty(uint256 _contractId, address _addr) private view returns (bool, uint256) {\n        for(uint256 i = 0; i < parties[_contractId].length; i++) {\n            if (parties[_contractId][i] == _addr) {\n                return (true, i);\n            }\n        }\n        return (false, 0);\n    }\n\n    function _checkDistinctParties(address[] _parties) private pure returns (bool) {\n        for (uint256 i = 0; i < _parties.length; i++) {\n            for (uint256 j = i + 1; j < _parties.length; j++) {\n                if (_parties[i] == _parties[j]) {\n                    return false;\n                }\n            }\n        }\n        return true;\n    }\n}\n",
  "sourcePath": "/home/ubuntu/contract_private/contracts/poc/Poc.sol",
  "compiler": {
    "name": "solc",
    "version": "0.4.24+commit.e67f0147.Emscripten.clang"
  },
  "schemaVersion": "2.0.1",
  "updatedAt": "2018-08-20T01:55:19.804Z"
}